:1000000008308A0000280000FF00030E8301A100D1
:100010000A08A0008A010408A2007708A300780853
:10002000A4007908A5007A08A60003170D08031399
:10003000A70003170F080313A80003170C080313E6
:10004000A90003170E080313AA00831383128B1D44
:100050002B280B184C28220884002308F7002408BA
:10006000F8002508F9002608FA00270803178D0074
:100070000313280803178F000313290803178C00A4
:1000800003132A0803178E00031320088A00210E89
:100090008300FF0E7F0E09008A110A124F280B10F1
:1000A000FF3083168600831206083039BA003808FC
:1000B0003A02031D5E28B9080319722800303A1A63
:1000C0000130D6000030B81A01305602031D6B28EB
:1000D0000130B1076D280130B102FA013A08B800C9
:1000E0007A08B9000B108A110A122B280C296533E3
:1000F000BA12EC3A0000AC25701D253675002005BB
:100100004539BA12EC3400002C28F736BA12EC3418
:10011000001F0C296533BA12EC3A0001AC25701DA2
:100120002536750020054539BA12EC3400012C281B
:10013000F736BA12EC3400004C3084008313000808
:100140000319B0280130F800F701F70BA528F80BC8
:10015000A4284A30F700F70BAB28AE28800BA22862
:100160000800530EF039F7000F30080577048800B7
:1001700000000814BB28081008000808F700080E43
:100180000F39F80008008316081088100811831230
:1001900088100F3083160805F03888008312081580
:1001A000000008140000BD207808D30008100000EB
:1001B00008140000BD207808D20008100F30831604
:1001C000080588008312530EF700F030F705770812
:1001D0005204F8007808D200D21BC928501C88109D
:1001E000501888140000081100000810510ED200A9
:1001F0000F30D2055208D300B12051080F39D20078
:10020000D300B12008002830C3000C30C4000130F6
:10021000C5000630C6000810881008110F3083167C
:10022000080588000810881008110F308312CC00D0
:100230009C200130C2004208033C031C27290330E4
:10024000D300B1200530CC009C20C20A1B2902300B
:10025000D300B1200530CC009C20C2014208033CF1
:10026000031C3E2943304207840083130008C70063
:10027000D0014708D100C320C20A2E298A150A12CC
:1002800023288E30F7004508F8004408F900FA01E9
:10029000F808031D55297908F800F9010830F7021C
:1002A000F808031D5529F7015D290310F81B5C2987
:1002B000F90DF80DF7035529F81308004408031940
:1002C000CE29CC0048080319CE29CC0703186F2982
:1002D0007F30CC02031CCE290319CE29732981302B
:1002E000CC070318CE294C08F700F801F901FA01F0
:1002F0004508D000D0174608CF004708CE00183078
:10030000CC00CD014E1C9C294B08FA07031C8E29FA
:10031000F90A031D8E29F80A0319CD174A08F907AF
:10032000031C9529F80A0319CD174908C600C617FA
:100330004608F8070318CD17CD0DF80CF90CFA0C88
:10034000D00CCF0CCE0C0310CC0B81290130F70759
:100350000318CE29F81BB329D00DFA0DF90DF80DAD
:10036000F7030319CE29D01FC429FA0A031DC42993
:10037000F90A031DC429F80A031DC429F80CF90C55
:10038000FA0CF70A0319CE294508CD004908CD0615
:10039000CD1FCC29F817D229F813D229F701F8017B
:1003A000F901FA01080046080319982AD2004A0800
:1003B0000319982AD202031CE2297F30D2070318BE
:1003C000982AE8298130D202031C982A0319982A16
:1003D0005208F700F801F901FA01D1014708D000ED
:1003E000D0174808CF004908CE001930D2004D0878
:1003F000CE0203180B2A0130CF0203180B2AD002B9
:1004000003180B2AD10203180B2AD10AD00ACF0AEB
:100410004D08CE073D2A4C08CF020318262A01308A
:10042000D0020318262AD1020318262AD10AD00A9C
:100430004C08CF074D08CE07031C3D2ACF0A031DE9
:100440003D2AD00A031D3D2AD10A3D2A4B08803897
:10045000D00203183C2A0130D10203183C2AD10AE9
:100460004B088038D0074C08CF07031C1A2AD00A43
:10047000031D1A2AD10A1A2A7A14D20B402A4B2AAF
:100480000310CE0DCF0DD00DD10D0310FA0DF90DC7
:10049000F80DD30DF729531C532A0310F80CF90C4F
:1004A000FA0CD30C562AF7030319982AD31B7F2A78
:1004B0000310CE0DCF0DD00DD10D4D08CE02031877
:1004C0006B2A0130CF0203186B2AD00203186B2A63
:1004D000D102031C8E2A4C08CF020318762A013061
:1004E000D0020318762AD102031C8E2A4B088038CA
:1004F000D00203187F2A0130D102031C8E2AFA0A87
:10050000031D8E2AF90A031D8E2AF80A031D8E2A5E
:10051000F70A0319982AF80CF90CFA0C4708D200CC
:100520004B08D206D21F962AF8179C2AF8139C2A49
:10053000F701F801F901FA01080080308318CB06B1
:10054000D001D1014708CF004B08CF064608031958
:100550008D2BCE00F7004A080319962BCE02031903
:10056000322B031CF02A4B08D400D4174C08D300BC
:100570004D08D200D1010310D40CD30CD20CD10CF5
:10058000CE0BBA2ACF1FC72A5014AA2B50104E10D8
:100590005016493084008313BF2B5012CF1BDA2A28
:1005A0004E1CE52AD40CD30CD20CD10CF70A03193B
:1005B000A52BE52AD41BE82A0310D10DD20DD30DAB
:1005C000D40DF7030319A52BDA2A5017522B501319
:1005D0004708CF00CF1FEE2AD4179E2BD4139E2B93
:1005E0004A08CE00F7004608CE024708D400D417C8
:1005F0004808D3004908D200D1010310D40CD30C11
:10060000D20CD10CCE0BFC2ACF1F092BD014AA2B55
:10061000D0104E10D0164D3084008313BF2BD01253
:10062000CF1B1C2B4E1C272BD40CD30CD20CD10C63
:10063000F70A0319A52B272BD41B2A2B0310D10D46
:10064000D20DD30DD40DF7030319A52B1C2BD017F6
:10065000522BD0134B08CF00CF1F302BD4179E2B1B
:10066000D4139E2B4B08D400D4174C08D3004D084C
:10067000D200CF1F3F2BD4135015AA2B5011D101FC
:100680004E10493084008313BF2BCF1B682B4708C3
:10069000CF004E1C522BD40CD30CD20CD10CF70A29
:1006A0000319A52BD11F632BD20A031D632BD30A79
:1006B000031D632BD40A031D632BD40CD30CD20C63
:1006C000F70A0319A52B501BE72AD01B292B872BD0
:1006D0008030D406D41F702BAA2B4B08CF007D2B63
:1006E0004708CF00D408031D7D2BD308031D7D2BA5
:1006F000D208031D7D2BF7019E2BD41B872B0310E3
:10070000D10DD20DD30DD40DF70B7D2BA52BCF1F03
:100710008B2BD4179E2BD4139E2B4A08F7004B0823
:10072000D4004C08D3004D08D2009E2B4608F70099
:100730004708D4004808D3004908D2005408F800FC
:100740005308F9005208FA00DD2BF701F801F9010E
:10075000FA01DD2BD101D209D309D409D109D10A7B
:10076000031DB82BD20A031DB82BD30A0319D40AD0
:100770005018C62AD018082B50193E2B6D2B000894
:10078000D207031CC92BD30A031DC92BD40A031992
:100790004E1484030008D307031CD12BD40A031979
:1007A0004E1484030008801F803AD40703184E14A7
:1007B000501ACD2AD01A0F2B452B08008E30F70087
:1007C0004208F7024308F9004408F800F917F7084F
:1007D0000319F52B0310F908031DF12BF808031971
:1007E000F52BF90CF80CF70BEA2BC31FFC2BF809BF
:1007F000F909F80A0319F90A08004D0B002C032C1B
:100800004030CE00042CCE0101304C02CE074E0801
:100810008038CF00D0014F08D100C32008004B081A
:10082000073A03191D2C0B3A0319222C063A031917
:100830002A2C023A0319302C352C0130CC00CD0083
:10084000FD233A2CD0010130D100C3200230CC006E
:100850009C203A2C0130CC000230CD00FD233A2CF4
:10086000D0011030D100C3203A2C0130D0004B0809
:10087000D100C32008000B08C3008B138316031795
:100880008C170C140000000083120313C31B8B177A
:100890000318722C03170C087F390313C3000317C6
:1008A0000D080313C40003170F080313C500430802
:1008B000CB000F24440803178D00031345080317CA
:1008C0008F0003130B08C6008B13831603178C17B6
:1008D0000C140000000083120313C61B8B17C20BFD
:1008E000722C912C03170C0D0E0D7F390313C300CE
:1008F00003170D080313C40003170F080313C500E3
:100900004308CB000F24440803178D000313450848
:1009100003178F008D0A03198F0A03100313C20BEC
:100920003B2C0800CA010408C9004A10831B4A1462
:10093000430EF038C500C507E23EC600323EC8008F
:1009400043080F39C607C607C807E93EC700C707EF
:10095000C707420E0F39C707C807C70DC80DC8091A
:10096000C80D42080F39C807C50D0730C4000A304A
:10097000C807C703031CB82CC707C603031CBC2C3D
:10098000C607C503031CC02CC507C403031CC42C25
:1009900044308400831307304905491384074830E5
:1009A0000402031949170008F700031DDF2C491B37
:1009B000DF2C491AF12CC919DF2C2030E22CC91583
:1009C00049123030F707C3010408C2004310831BEB
:1009D00043147708CB000F24420884008313431884
:1009E0008317840A491FCF2C0800C201B11B012DB7
:1009F0003108033C0318012D0130C2070430B10255
:100A0000F62C3108803A7C3C031C0B2D0130C202CD
:100A10000430B107012D4208F8000800CA0104089B
:100A2000C9004A10831B4A14C31F1E2DC917491E33
:100A3000C90AC209C309C20A0319C30A430EF0381E
:100A4000C500C507E23EC600323EC80043080F3964
:100A5000C607C607C807E93EC700C707C707420E53
:100A60000F39C707C807C70DC80DC809C80D420808
:100A70000F39C807C50D0730C4000A30C807C703BF
:100A8000031C3E2DC707C603031C422DC607C50322
:100A9000031C462DC507C403031C4A2D44308400A3
:100AA000831307304905491384034905031D5F2D4E
:100AB000491A840A491A5F2D2030F7007C2D8407DB
:100AC00048300402031949170008F700031D702D70
:100AD000491B702D491A8A2DC919702D20307B2D84
:100AE000C91F782D2D30F70084034913C9137C2DBD
:100AF000C91549123030F707C3010408C20043107A
:100B0000831B43147708CB000F244208840083130F
:100B100043188317840A491F602D080043084506BF
:100B20008039C700C31F992DC209C309C20A03191E
:100B3000C30AC51FA02DC409C509C40A0319C50AE3
:100B40001030C600F701FA01C30CC20C031CAE2D15
:100B50004408F7070318FA0A4508FA07FA0CF70CD5
:100B6000F90CF80CC60BA42DC71FBB2DF809F90909
:100B7000F80A0319F90A0800F801F901F701FA0166
:100B80004708031DC62D46080319E02D1030C80084
:100B90000310C40DC50DF70DFA0D47087A02031DA9
:100BA000D32D46087702031CDC2D4608F702031CF0
:100BB000FA034708FA020314F80DF90DC80BC82D03
:060BC0008A150A122E2B1B
:1010000003081F398300AC01AB01AE010130AD0014
:10101000B001AF01B101B301B201B501B401BC012E
:10102000BB01BE01BD01C0011430BF00FF30C100D3
:1010300083161F149F141F159F1107309C008313E4
:101040008A11831203298A150A30CC008A119C2048
:101050008A15FF30831687008312C10041114108B1
:1010600083168700831207110C3097000030F800B8
:1010700006389200FF30831692001F1383121F134D
:101080009F1783169F1783121F1483161F109F101C
:101090001F159F1183128B15C0308B048316861089
:1010A0008312861083160611831206110030F80091
:1010B0001F08C73978049F000230F700F70B5E283D
:1010C000612800001F151F1963281E08FA008316E7
:1010D0001E088312C2001E08C300C5004208C400D7
:1010E0008A1141218A157A08C7007908C600780854
:1010F000C5007708C400CB01CA017A30C900863028
:10110000C8008A115E218A157A08C5007908C400D2
:101110007808C3007708C2004508C9004408C80021
:101120004308C7004208C600CD01C030CC007F3064
:10113000CB008830CA008A11D3218A157A08C500ED
:101140007908C4007808C3007708C20083104508F6
:10115000C9004408C8004308C7004208C600CD01C2
:10116000CC012030CB008330CA008A119D228A1521
:101170007A08C5007908C4007808C3007708C2005F
:101180008A11DE238A157908C0007808BF007630FE
:1011900003178D0000308F00031005300313C200C9
:1011A0008A113B248A15103084004008C3003F0890
:1011B000C2008A1192248A150A30CC008A119C2020
:1011C0008A150830F8001F08C73978049F000230DC
:1011D000F700F70BE928EC2800001F151F19EE286F
:1011E0001E08FA0083161E088312C2001E08C300E0
:1011F000C5004208C4008A1141218A157A08C70037
:101200007908C6007808C5007708C400CB01CA0178
:101210007030C9008430C8008A115E218A157A08AE
:10122000C5007908C4007808C3007708C2004508E3
:10123000C9004408C8004308C7004208C600CD01E1
:10124000C030CC007F30CB008830CA008A11D32157
:101250008A157A08C5007908C4007808C3007708A1
:10126000C20083104508C9004408C8004308C700ED
:101270004208C600CD01CC012030CB008330CA002B
:101280008A119D228A157A08C5007908C400780859
:10129000C3007708C2008A11DE238A157908BE00D0
:1012A0007808BD000830CC000130CD008A11FD2344
:1012B0008A157B3003178D0000308F000310043037
:1012C0000313C2008A113B248A15103084003E08A3
:1012D000C3003D08C2008A1192248A150A30CC004E
:1012E0008A119C208A158A11F5248A15FA0178083A
:1012F000F81BFA03B2007A08B3003208330403196A
:1013000087293208BB0733080318330FBC073B0893
:101310003F02F7004008FA003C08031C3C0FFA02A9
:101320007708AD007A08AE007F3003178D000030DB
:101330008F00031005300313C2008A113B248A1565
:10134000103084002E08C3002D08C2008A110E251B
:101350008A150830CC000230CD008A11FD238A1591
:10136000843003178D0000308F0003100530031305
:10137000C2008A113B248A15103084003008C30053
:101380002F08C2008A110E258A156430CC008A11FC
:101390009C208A15AD08031DD029AE080319B52A73
:1013A0003E08C3003D08C2002E08C5002D08C40039
:1013B0008A118E258A157908C3007808C20043086F
:1013C000FA004208C31FED294208003CF700FA0169
:1013D0004308031C430FFA027708AF007A08B000F5
:1013E000B01B012A3008023C0318012AFF3A031DF2
:1013F000FD292F08FE3C0318012A0330B000FF30FE
:10140000AF003008F9002F08F800F90CF80CF90CBF
:10141000F80CF90C78089500F90C790C3039F700C4
:101420001708CF3977049700AE1B262AAE08031D94
:101430001D2A2D08003C0318262A831686108312C5
:1014400086108316061183120615302AAE1F302A25
:1014500083168610831286148316061183120611D2
:101460008A11F5248A15FA017808F81BFA03B200EC
:101470007A08B3003208BB0733080318330FBC07E0
:101480003B083F02F7004008FA003C08031C3C0FF1
:10149000FA027708AD007A08AE00893003178D0094
:1014A00000308F00031005300313C2008A113B2463
:1014B0008A15103084004008C3003F08C2008A111A
:1014C00092248A150830CC000130CD008A11FD230A
:1014D0008A158E3003178D0000308F000310043002
:1014E0000313C2008A113B248A15103084003E0881
:1014F000C3003D08C2008A1192248A159230031756
:101500008D0000308F00031005300313C2008A11D4
:101510003B248A15103084002E08C3002D08C20019
:101520008A110E258A150830CC000230CD008A11B0
:10153000FD238A15973003178D0000308F000310AC
:1015400005300313C2008A113B248A151030840031
:101550003008C3002F08C2008A110E258A151430E6
:10156000CC008A119C208A15CA293E08C3003D0878
:10157000C2002E08C5002D08C4008A118E258A15C8
:101580007908C3007808C2004308FA004208C31F64
:10159000D22A4208003CF700FA014308031C430F1B
:1015A000FA027708AF007A08B0003008F9002F0877
:1015B000F800F90CF80CF90CF80CF90C7808950007
:1015C000F90C790C3039F7001708CF3977049700F8
:1015D0006430CC008A119C208A153C08C5003B0869
:1015E000C4008A1141218A157A08C9007908C80007
:1015F0007808C7007708C600CD01CC013430CB0095
:101600008730CA008A11D3218A157A08C500790863
:10161000C4007808C3007708C2008A11DE238A1547
:101620007908AC007808AB002C08C3002B08C20076
:101630000130C5006830C4008A118E258A157908EA
:10164000FA007808C2007A08C300C5004208C40046
:101650000130C7006830C6008A11BC2D8A15770892
:0A166000B4007A08B50056286300B4
:02400E00393F38
:00000001FF
;PIC16F877A
;CRC=0497  CREATED="07-Haz-21 17:32"
